:100000000C945A000C9477000C9477000C94DF0049
:100010000C9477000C9477000C9477000C94770084
:100020000C9477000C9477000C9477000C94770074
:100030000C9477000C9477000C94F9000C947700E2
:100040000C9477000C9477000C9477000C94770054
:100050000C9477000C9477000C9477000C94770044
:100060000C9477000C9477000C9477000C94770034
:100070000C9477000C9477000C9477000C94770024
:100080000C9477000C9477000C9477000C94770014
:100090000C9477000C9477000C9477000C94770004
:1000A0000C9477000C9477000C9477000C947700F4
:1000B0000C94770011241FBECFEFD8E0DEBFCDBF78
:1000C00011E0A0E0B1E0E6EEF2E002C005900D9292
:1000D000A031B107D9F721E0A0E1B1E001C01D9244
:1000E000A531B207E1F70E94BE000C9471010C9497
:1000F00000001092C1008AB183608AB908950E94FD
:1001000079008FEF8AB91BB887B18E6087B988B143
:10011000817F88B984B18C7F84B985B1836085B9CA
:10012000E8E6F0E0808181608083EBE6F0E08081AA
:10013000836080830895ECE7F0E080E48083808131
:10014000807F8660808387E880937A00089582E0CC
:1001500084BD93E095BD99EF97BD80936E0008959F
:10016000EAE7F0E080818064808380917A0086FDF8
:10017000FCCF809178009091790008950E947F00D3
:100180000E949B000E94A70078940E94B000909368
:1001900012018093110180911101909112019695A5
:1001A000879596958795809313012FEF80E792E0CE
:1001B000215080409040E1F700C00000E6CF1F9240
:1001C0000F920FB60F9211248F93189905C080914A
:1001D00014018F5F80931401199905C08091140157
:1001E0008150809314018F910F900FBE0F901F903C
:1001F00018951F920F920FB60F9211245F936F9371
:100200007F938F939F93AF93BF93EF93FF9388B1A7
:10021000817F88B980911001813059F018F08230C7
:10022000A1F01FC0809114018BB988B1826088B998
:1002300018C0E0911301EF70F0E0E050FF4F8081B3
:100240008BB988B1846088B90CC0E0911301E29544
:10025000EF70F0E0E050FF4F80818BB988B188608B
:1002600088B98091100190E0019663E070E00E94EF
:10027000490180931001FF91EF91BF91AF919F9140
:100280008F917F916F915F910F900FBE0F901F9094
:10029000189597FB072E16F4009407D077FD09D028
:1002A0000E945D0107FC05D03EF4909581959F4F1B
:1002B0000895709561957F4F0895AA1BBB1B51E16E
:1002C00007C0AA1FBB1FA617B70710F0A61BB70BC6
:1002D000881F991F5A95A9F780959095BC01CD016B
:0602E0000895F894FFCF21
:1002E6003F065B4F666D7D077F6F777C395E797160
:00000001FF
