S0110000506F73744C61625F342E73726563CB
S11300000C945A000C9477000C9477000C94E8003C
S11300100C9477000C9477000C9477000C94770080
S11300200C9477000C9477000C9477000C94770070
S11300300C9477000C9477000C9472010C94770064
S11300400C9477000C9477000C9477000C94770050
S11300500C9477000C941C010C9477000C9477009A
S11300600C9477000C9477000C9477000C94770030
S11300700C9477000C9477000C9477000C94770020
S11300800C9477000C9477000C9477000C94770010
S11300900C9477000C9477000C9477000C94770000
S11300A00C9477000C9477000C9477000C947700F0
S11300B00C94770011241FBECFEFD8E0DEBFCDBF74
S11300C011E0A0E0B1E0E8EDF3E002C005900D928C
S11300D0A031B107D9F721E0A0E1B1E001C01D9240
S11300E0AF31B207E1F70E94CA000C94EA010C9404
S11300F000001092C1008AB183608AB908950E94F9
S113010079008FEF8AB91BB887B18E6087B988B13F
S1130110817F88B984B18C7F84B985B1836085B9C6
S1130120E8E6F0E0808181608083EBE6F0E08081A6
S11301308360808384B1806284B985B18F7D85B901
S11301400895ECE7F0E080E480838081807F86601E
S113015080838FE880937A00089582E084BD93E0E1
S113016095BD99EF97BD80936E000895EAE7F0E09E
S1130170808180648083089590911D0180911E0187
S1130180891720F485B1806285B9089585B18F7D82
S113019085B908950E947F000E94A1000E94AD00CD
S11301A00E94B600789480911A018823E1F380912B
S11301B01B0190911C019695879596958795809340
S11301C01D0110921A010E94BC000E94B600EBCFE0
S11301D01F920F920FB60F9211242F933F934F93B8
S11301E05F936F937F938F939F93AF93BF93EF939B
S11301F0FF93189907C080911E018F5F80931E01A1
S11302000E94BC00199907C080911E0181508093FF
S11302101E010E94BC00FF91EF91BF91AF919F918D
S11302208F917F916F915F914F913F912F910F909B
S11302300FBE0F901F9018951F920F920FB60F923A
S113024011242F933F938F939F93AF93BF93EF9377
S1130250FF93809178009091790090931C01809392
S11302601B0180911901E82FF0E020911B013091CE
S11302701C01A1E1B1E0EE0FFF1FEF5EFE4F3183E1
S113028020838F5F8370809319012D913C91119786
S113029012968D919C911397820F931F14962D9112
S11302A03C911597820F931F16962D913C911797A9
S11302B0820F931F969587959695879590931C0129
S11302C080931B0181E080931A01FF91EF91BF910C
S11302D0AF919F918F913F912F910F900FBE0F90EF
S11302E01F9018951F920F920FB60F9211245F93CF
S11302F06F937F938F939F93AF93BF93EF93FF93EA
S113030088B1817F88B980911001813059F018F04B
S11303108230A1F01FC080911E018BB988B1826028
S113032088B918C0E0911D01EF70F0E0E050FF4F74
S113033080818BB988B1846088B90CC0E0911D01BB
S1130340E295EF70F0E0E050FF4F80818BB988B107
S1130350886088B98091100190E0019663E070E0B4
S11303600E94C20180931001FF91EF91BF91AF9160
S11303709F918F917F916F915F910F900FBE0F901E
S11303801F90189597FB072E16F4009407D077FD5D
S113039009D00E94D60107FC05D03EF490958195C2
S11303A09F4F0895709561957F4F0895AA1BBB1BBD
S11303B051E107C0AA1FBB1FA617B70710F0A61B61
S11303C0B70B881F991F5A95A9F780959095BC0182
S10B03D0CD010895F894FFCF5C
S11303D83F065B4F666D7D077F6F777C395E797169
S9030000FC
