S01000005072654C61625F342E737265634B
S11300000C945A000C946C000C946C000C949400A6
S11300100C946C000C946C000C946C000C946C00AC
S11300200C946C000C946C000C946C000C946C009C
S11300300C946C000C946C000C946C000C946C008C
S11300400C946C000C946C000C946C000C946C007C
S11300500C946C000C946C000C946C000C946C006C
S11300600C946C000C946C000C946C000C946C005C
S11300700C946C000C946C000C946C000C946C004C
S11300800C946C000C946C000C946C000C946C003C
S11300900C946C000C946C000C946C000C946C002C
S11300A00C946C000C946C000C946C000C946C001C
S11300B00C946C0011241FBECFEFD8E0DEBFCDBF7F
S11300C021E0A0E0B1E001C01D92A130B207E1F748
S11300D00E948E000C94C8000C9400001092C10081
S11300E08AB183608AB908950E946E008FEF8AB93D
S11300F01BB884B18C7F84B985B1836085B9E8E687
S1130100F0E0808181608083EBE6F0E080818360B1
S113011080830895809100018BB908950E94740032
S11301200E948A007894FFCF1F920F920FB60F920D
S113013011242F933F934F935F936F937F938F93E8
S11301409F93AF93BF93EF93FF93189907C0809148
S113015000018F5F809300010E948A00199907C0F3
S1130160809100018150809300010E948A00FF91D8
S1130170EF91BF91AF919F918F917F916F915F911B
S11301804F913F912F910F900FBE0F901F90189594
S1070190F894FFCF0D
S9030000FC
